{
  "contractName": "EvenStore",
  "abi": [
    {
      "inputs": [],
      "name": "getNum",
      "outputs": [
        {
          "internalType": "uint256",
          "name": "",
          "type": "uint256"
        }
      ],
      "stateMutability": "nonpayable",
      "type": "function"
    },
    {
      "inputs": [
        {
          "internalType": "uint256",
          "name": "_num",
          "type": "uint256"
        }
      ],
      "name": "storeEven",
      "outputs": [],
      "stateMutability": "nonpayable",
      "type": "function"
    }
  ],
  "bytecode": "0x608060405234801561001057600080fd5b5061027c806100206000396000f3fe608060405234801561001057600080fd5b50600436106100365760003560e01c806367e0badb1461003b57806387e0be0d14610059575b600080fd5b610043610075565b60405161005091906100f0565b60405180910390f35b610073600480360381019061006e919061013c565b61007e565b005b60008054905090565b600060028261008d9190610198565b146100cd576040517f08c379a00000000000000000000000000000000000000000000000000000000081526004016100c490610226565b60405180910390fd5b8060008190555050565b6000819050919050565b6100ea816100d7565b82525050565b600060208201905061010560008301846100e1565b92915050565b600080fd5b610119816100d7565b811461012457600080fd5b50565b60008135905061013681610110565b92915050565b6000602082840312156101525761015161010b565b5b600061016084828501610127565b91505092915050565b7f4e487b7100000000000000000000000000000000000000000000000000000000600052601260045260246000fd5b60006101a3826100d7565b91506101ae836100d7565b9250826101be576101bd610169565b5b828206905092915050565b600082825260208201905092915050565b7f4e6f74204576656e000000000000000000000000000000000000000000000000600082015250565b60006102106008836101c9565b915061021b826101da565b602082019050919050565b6000602082019050818103600083015261023f81610203565b905091905056fea2646970667358221220f84d39af7c52614366c0f5c6ccb1bcd40ce6a263f2cac7842fb39b43c6b1e3b264736f6c63430008110033",
  "immutableReferences": {},
  "source": "pragma solidity >=0.8.0 <0.9.0;\r\n\r\ncontract EvenStore {\r\n    uint256 num;\r\n\r\n    function getNum() external returns (uint256) {\r\n        return num;\r\n    }\r\n\r\n    function storeEven(uint256 _num) public {\r\n        require(_num % 2 == 0, \"Not Even\");\r\n        num = _num;\r\n    }\r\n}\r\n",
  "sourcePath": "C:\\Users\\Sudeep\\Desktop\\DAO\\bc\\contracts\\EvenStore.sol",
  "compiler": {
    "name": "solc",
    "version": "0.8.17+commit.8df45f5f.Emscripten.clang"
  },
  "schemaVersion": "3.4.10",
  "updatedAt": "2022-10-18T07:28:48.752Z",
  "networkType": "ethereum",
  "devdoc": {
    "kind": "dev",
    "methods": {},
    "version": 1
  },
  "userdoc": {
    "kind": "user",
    "methods": {},
    "version": 1
  }
}