{
  "contractName": "STUDAO",
  "abi": [
    {
      "inputs": [
        {
          "internalType": "address",
          "name": "_proposalHandler",
          "type": "address"
        },
        {
          "internalType": "address",
          "name": "_stuNFT",
          "type": "address"
        }
      ],
      "stateMutability": "payable",
      "type": "constructor",
      "payable": true
    },
    {
      "anonymous": false,
      "inputs": [
        {
          "indexed": true,
          "internalType": "address",
          "name": "previousOwner",
          "type": "address"
        },
        {
          "indexed": true,
          "internalType": "address",
          "name": "newOwner",
          "type": "address"
        }
      ],
      "name": "OwnershipTransferred",
      "type": "event"
    },
    {
      "stateMutability": "payable",
      "type": "fallback",
      "payable": true
    },
    {
      "inputs": [],
      "name": "numProposals",
      "outputs": [
        {
          "internalType": "uint256",
          "name": "",
          "type": "uint256"
        }
      ],
      "stateMutability": "view",
      "type": "function",
      "constant": true
    },
    {
      "inputs": [],
      "name": "owner",
      "outputs": [
        {
          "internalType": "address",
          "name": "",
          "type": "address"
        }
      ],
      "stateMutability": "view",
      "type": "function",
      "constant": true
    },
    {
      "inputs": [
        {
          "internalType": "uint256",
          "name": "",
          "type": "uint256"
        }
      ],
      "name": "proposals",
      "outputs": [
        {
          "internalType": "uint256",
          "name": "nftTokenId",
          "type": "uint256"
        },
        {
          "internalType": "uint256",
          "name": "deadline",
          "type": "uint256"
        },
        {
          "internalType": "uint256",
          "name": "yayVotes",
          "type": "uint256"
        },
        {
          "internalType": "uint256",
          "name": "nayVotes",
          "type": "uint256"
        },
        {
          "internalType": "bool",
          "name": "executed",
          "type": "bool"
        }
      ],
      "stateMutability": "view",
      "type": "function",
      "constant": true
    },
    {
      "inputs": [],
      "name": "renounceOwnership",
      "outputs": [],
      "stateMutability": "nonpayable",
      "type": "function"
    },
    {
      "inputs": [
        {
          "internalType": "address",
          "name": "newOwner",
          "type": "address"
        }
      ],
      "name": "transferOwnership",
      "outputs": [],
      "stateMutability": "nonpayable",
      "type": "function"
    },
    {
      "stateMutability": "payable",
      "type": "receive",
      "payable": true
    },
    {
      "inputs": [
        {
          "internalType": "uint256",
          "name": "_nftTokenId",
          "type": "uint256"
        }
      ],
      "name": "createProposal",
      "outputs": [
        {
          "internalType": "uint256",
          "name": "",
          "type": "uint256"
        }
      ],
      "stateMutability": "nonpayable",
      "type": "function"
    },
    {
      "inputs": [
        {
          "internalType": "uint256",
          "name": "proposalIndex",
          "type": "uint256"
        },
        {
          "internalType": "enum STUDAO.Vote",
          "name": "vote",
          "type": "uint8"
        }
      ],
      "name": "voteOnProposal",
      "outputs": [],
      "stateMutability": "nonpayable",
      "type": "function"
    },
    {
      "inputs": [
        {
          "internalType": "uint256",
          "name": "proposalIndex",
          "type": "uint256"
        }
      ],
      "name": "executeProposal",
      "outputs": [],
      "stateMutability": "nonpayable",
      "type": "function"
    },
    {
      "inputs": [],
      "name": "withdrawEther",
      "outputs": [],
      "stateMutability": "nonpayable",
      "type": "function"
    }
  ],
  "bytecode": "0x60806040526040516200188738038062001887833981810160405281019062000029919062000209565b620000496200003d620000d360201b60201c565b620000db60201b60201c565b81600360006101000a81548173ffffffffffffffffffffffffffffffffffffffff021916908373ffffffffffffffffffffffffffffffffffffffff16021790555080600460006101000a81548173ffffffffffffffffffffffffffffffffffffffff021916908373ffffffffffffffffffffffffffffffffffffffff160217905550505062000250565b600033905090565b60008060009054906101000a900473ffffffffffffffffffffffffffffffffffffffff169050816000806101000a81548173ffffffffffffffffffffffffffffffffffffffff021916908373ffffffffffffffffffffffffffffffffffffffff1602179055508173ffffffffffffffffffffffffffffffffffffffff168173ffffffffffffffffffffffffffffffffffffffff167f8be0079c531659141344cd1fd0a4f28419497f9722a3daafe3b4186f6b6457e060405160405180910390a35050565b600080fd5b600073ffffffffffffffffffffffffffffffffffffffff82169050919050565b6000620001d182620001a4565b9050919050565b620001e381620001c4565b8114620001ef57600080fd5b50565b6000815190506200020381620001d8565b92915050565b600080604083850312156200022357620002226200019f565b5b60006200023385828601620001f2565b92505060206200024685828601620001f2565b9150509250929050565b61162780620002606000396000f3fe60806040526004361061008a5760003560e01c8063715018a611610059578063715018a6146101655780637362377b1461017c5780638da5cb5b14610193578063efafb22e146101be578063f2fde38b146101e757610091565b8063013cf08b146100935780630d61b519146100d4578063400e3949146100fd5780635a43dc001461012857610091565b3661009157005b005b34801561009f57600080fd5b506100ba60048036038101906100b59190610e3d565b610210565b6040516100cb959493929190610e94565b60405180910390f35b3480156100e057600080fd5b506100fb60048036038101906100f69190610e3d565b610253565b005b34801561010957600080fd5b506101126105aa565b60405161011f9190610ee7565b60405180910390f35b34801561013457600080fd5b5061014f600480360381019061014a9190610e3d565b6105b0565b60405161015c9190610ee7565b60405180910390f35b34801561017157600080fd5b5061017a6107d1565b005b34801561018857600080fd5b506101916107e5565b005b34801561019f57600080fd5b506101a861083d565b6040516101b59190610f43565b60405180910390f35b3480156101ca57600080fd5b506101e560048036038101906101e09190610f83565b610866565b005b3480156101f357600080fd5b5061020e60048036038101906102099190610fef565b610c35565b005b60016020528060005260406000206000915090508060000154908060010154908060020154908060030154908060040160009054906101000a900460ff16905085565b6000600460009054906101000a900473ffffffffffffffffffffffffffffffffffffffff1673ffffffffffffffffffffffffffffffffffffffff166370a08231336040518263ffffffff1660e01b81526004016102b09190610f43565b602060405180830381865afa1580156102cd573d6000803e3d6000fd5b505050506040513d601f19601f820116820180604052508101906102f19190611031565b11610331576040517f08c379a0000000000000000000000000000000000000000000000000000000008152600401610328906110bb565b60405180910390fd5b80426001600083815260200190815260200160002060010154111561038b576040517f08c379a000000000000000000000000000000000000000000000000000000000815260040161038290611127565b60405180910390fd5b600015156001600083815260200190815260200160002060040160009054906101000a900460ff161515146103f5576040517f08c379a00000000000000000000000000000000000000000000000000000000081526004016103ec90611193565b60405180910390fd5b6000600160008481526020019081526020016000209050806003015481600201541115610588576000600360009054906101000a900473ffffffffffffffffffffffffffffffffffffffff1673ffffffffffffffffffffffffffffffffffffffff166398d5fdca6040518163ffffffff1660e01b8152600401602060405180830381865afa15801561048b573d6000803e3d6000fd5b505050506040513d601f19601f820116820180604052508101906104af9190611031565b9050804710156104f4576040517f08c379a00000000000000000000000000000000000000000000000000000000081526004016104eb906111ff565b60405180910390fd5b600360009054906101000a900473ffffffffffffffffffffffffffffffffffffffff1673ffffffffffffffffffffffffffffffffffffffff1663efef39a18284600001546040518363ffffffff1660e01b81526004016105549190610ee7565b6000604051808303818588803b15801561056d57600080fd5b505af1158015610581573d6000803e3d6000fd5b5050505050505b60018160040160006101000a81548160ff021916908315150217905550505050565b60025481565b600080600460009054906101000a900473ffffffffffffffffffffffffffffffffffffffff1673ffffffffffffffffffffffffffffffffffffffff166370a08231336040518263ffffffff1660e01b815260040161060e9190610f43565b602060405180830381865afa15801561062b573d6000803e3d6000fd5b505050506040513d601f19601f8201168201806040525081019061064f9190611031565b1161068f576040517f08c379a0000000000000000000000000000000000000000000000000000000008152600401610686906110bb565b60405180910390fd5b600360009054906101000a900473ffffffffffffffffffffffffffffffffffffffff1673ffffffffffffffffffffffffffffffffffffffff166396e494e8836040518263ffffffff1660e01b81526004016106ea9190610ee7565b602060405180830381865afa158015610707573d6000803e3d6000fd5b505050506040513d601f19601f8201168201806040525081019061072b919061124b565b61076a576040517f08c379a0000000000000000000000000000000000000000000000000000000008152600401610761906112c4565b60405180910390fd5b600060016000600254815260200190815260200160002090508281600001819055506102584261079a9190611313565b8160010181905550600260008154809291906107b590611347565b919050555060016002546107c9919061138f565b915050919050565b6107d9610cb8565b6107e36000610d36565b565b6107ed610cb8565b6107f561083d565b73ffffffffffffffffffffffffffffffffffffffff166108fc479081150290604051600060405180830381858888f1935050505015801561083a573d6000803e3d6000fd5b50565b60008060009054906101000a900473ffffffffffffffffffffffffffffffffffffffff16905090565b6000600460009054906101000a900473ffffffffffffffffffffffffffffffffffffffff1673ffffffffffffffffffffffffffffffffffffffff166370a08231336040518263ffffffff1660e01b81526004016108c39190610f43565b602060405180830381865afa1580156108e0573d6000803e3d6000fd5b505050506040513d601f19601f820116820180604052508101906109049190611031565b11610944576040517f08c379a000000000000000000000000000000000000000000000000000000000815260040161093b906110bb565b60405180910390fd5b814260016000838152602001908152602001600020600101541161099d576040517f08c379a00000000000000000000000000000000000000000000000000000000081526004016109949061140f565b60405180910390fd5b60006001600085815260200190815260200160002090506000600460009054906101000a900473ffffffffffffffffffffffffffffffffffffffff1673ffffffffffffffffffffffffffffffffffffffff166370a08231336040518263ffffffff1660e01b8152600401610a119190610f43565b602060405180830381865afa158015610a2e573d6000803e3d6000fd5b505050506040513d601f19601f82011682018060405250810190610a529190611031565b90506000805b82811015610b81576000600460009054906101000a900473ffffffffffffffffffffffffffffffffffffffff1673ffffffffffffffffffffffffffffffffffffffff16632f745c5933846040518363ffffffff1660e01b8152600401610abf92919061142f565b602060405180830381865afa158015610adc573d6000803e3d6000fd5b505050506040513d601f19601f82011682018060405250810190610b009190611031565b90506000151585600501600083815260200190815260200160002060009054906101000a900460ff16151503610b6d578280610b3b90611347565b935050600185600501600083815260200190815260200160002060006101000a81548160ff0219169083151502179055505b508080610b7990611347565b915050610a58565b5060008111610bc5576040517f08c379a0000000000000000000000000000000000000000000000000000000008152600401610bbc906114a4565b60405180910390fd5b60006001811115610bd957610bd86114c4565b5b856001811115610bec57610beb6114c4565b5b03610c115780836002016000828254610c059190611313565b92505081905550610c2d565b80836003016000828254610c259190611313565b925050819055505b505050505050565b610c3d610cb8565b600073ffffffffffffffffffffffffffffffffffffffff168173ffffffffffffffffffffffffffffffffffffffff1603610cac576040517f08c379a0000000000000000000000000000000000000000000000000000000008152600401610ca390611565565b60405180910390fd5b610cb581610d36565b50565b610cc0610dfa565b73ffffffffffffffffffffffffffffffffffffffff16610cde61083d565b73ffffffffffffffffffffffffffffffffffffffff1614610d34576040517f08c379a0000000000000000000000000000000000000000000000000000000008152600401610d2b906115d1565b60405180910390fd5b565b60008060009054906101000a900473ffffffffffffffffffffffffffffffffffffffff169050816000806101000a81548173ffffffffffffffffffffffffffffffffffffffff021916908373ffffffffffffffffffffffffffffffffffffffff1602179055508173ffffffffffffffffffffffffffffffffffffffff168173ffffffffffffffffffffffffffffffffffffffff167f8be0079c531659141344cd1fd0a4f28419497f9722a3daafe3b4186f6b6457e060405160405180910390a35050565b600033905090565b600080fd5b6000819050919050565b610e1a81610e07565b8114610e2557600080fd5b50565b600081359050610e3781610e11565b92915050565b600060208284031215610e5357610e52610e02565b5b6000610e6184828501610e28565b91505092915050565b610e7381610e07565b82525050565b60008115159050919050565b610e8e81610e79565b82525050565b600060a082019050610ea96000830188610e6a565b610eb66020830187610e6a565b610ec36040830186610e6a565b610ed06060830185610e6a565b610edd6080830184610e85565b9695505050505050565b6000602082019050610efc6000830184610e6a565b92915050565b600073ffffffffffffffffffffffffffffffffffffffff82169050919050565b6000610f2d82610f02565b9050919050565b610f3d81610f22565b82525050565b6000602082019050610f586000830184610f34565b92915050565b60028110610f6b57600080fd5b50565b600081359050610f7d81610f5e565b92915050565b60008060408385031215610f9a57610f99610e02565b5b6000610fa885828601610e28565b9250506020610fb985828601610f6e565b9150509250929050565b610fcc81610f22565b8114610fd757600080fd5b50565b600081359050610fe981610fc3565b92915050565b60006020828403121561100557611004610e02565b5b600061101384828501610fda565b91505092915050565b60008151905061102b81610e11565b92915050565b60006020828403121561104757611046610e02565b5b60006110558482850161101c565b91505092915050565b600082825260208201905092915050565b7f4e4f545f415f44414f5f4d454d42455200000000000000000000000000000000600082015250565b60006110a560108361105e565b91506110b08261106f565b602082019050919050565b600060208201905081810360008301526110d481611098565b9050919050565b7f444541444c494e455f4e4f545f45584345454445440000000000000000000000600082015250565b600061111160158361105e565b915061111c826110db565b602082019050919050565b6000602082019050818103600083015261114081611104565b9050919050565b7f50524f504f53414c5f414c52454144595f455845435554454400000000000000600082015250565b600061117d60198361105e565b915061118882611147565b602082019050919050565b600060208201905081810360008301526111ac81611170565b9050919050565b7f4e4f545f454e4f5547485f46554e445300000000000000000000000000000000600082015250565b60006111e960108361105e565b91506111f4826111b3565b602082019050919050565b60006020820190508181036000830152611218816111dc565b9050919050565b61122881610e79565b811461123357600080fd5b50565b6000815190506112458161121f565b92915050565b60006020828403121561126157611260610e02565b5b600061126f84828501611236565b91505092915050565b7f4e46545f4e4f545f464f525f53414c4500000000000000000000000000000000600082015250565b60006112ae60108361105e565b91506112b982611278565b602082019050919050565b600060208201905081810360008301526112dd816112a1565b9050919050565b7f4e487b7100000000000000000000000000000000000000000000000000000000600052601160045260246000fd5b600061131e82610e07565b915061132983610e07565b9250828201905080821115611341576113406112e4565b5b92915050565b600061135282610e07565b91507fffffffffffffffffffffffffffffffffffffffffffffffffffffffffffffffff8203611384576113836112e4565b5b600182019050919050565b600061139a82610e07565b91506113a583610e07565b92508282039050818111156113bd576113bc6112e4565b5b92915050565b7f444541444c494e455f4558434545444544000000000000000000000000000000600082015250565b60006113f960118361105e565b9150611404826113c3565b602082019050919050565b60006020820190508181036000830152611428816113ec565b9050919050565b60006040820190506114446000830185610f34565b6114516020830184610e6a565b9392505050565b7f414c52454144595f564f54454400000000000000000000000000000000000000600082015250565b600061148e600d8361105e565b915061149982611458565b602082019050919050565b600060208201905081810360008301526114bd81611481565b9050919050565b7f4e487b7100000000000000000000000000000000000000000000000000000000600052602160045260246000fd5b7f4f776e61626c653a206e6577206f776e657220697320746865207a65726f206160008201527f6464726573730000000000000000000000000000000000000000000000000000602082015250565b600061154f60268361105e565b915061155a826114f3565b604082019050919050565b6000602082019050818103600083015261157e81611542565b9050919050565b7f4f776e61626c653a2063616c6c6572206973206e6f7420746865206f776e6572600082015250565b60006115bb60208361105e565b91506115c682611585565b602082019050919050565b600060208201905081810360008301526115ea816115ae565b905091905056fea2646970667358221220b965721e69df243c7ca4db4c5f1e1a2abbf18036f9e8e218a79315dd71dc849a64736f6c63430008110033",
  "immutableReferences": {},
  "source": "// SPDX-License-Identifier: MIT\r\npragma solidity ^0.8.0;\r\n\r\nimport \"@openzeppelin/contracts/access/Ownable.sol\";\r\n\r\n// We will add the Interfaces here\r\n/**\r\n * Interface for the FakeproposalHandler\r\n */\r\ninterface IProposalHandler {\r\n    /// @dev getPrice() returns the price of an NFT from the FakeproposalHandler\r\n    /// @return Returns the price in Wei for an NFT\r\n    function getPrice() external view returns (uint256);\r\n\r\n    /// @dev available() returns whether or not the given _tokenId has already been purchased\r\n    /// @return Returns a boolean value - true if available, false if not\r\n    function available(uint256 _tokenId) external view returns (bool);\r\n\r\n    /// @dev purchase() purchases an NFT from the FakeproposalHandler\r\n    /// @param _tokenId - the fake NFT tokenID to purchase\r\n    function purchase(uint256 _tokenId) external payable;\r\n}\r\n\r\n/**\r\n * Minimal interface for stuNFT containing only two functions\r\n * that we are interested in\r\n */\r\ninterface ISTUNFT {\r\n    /// @dev balanceOf returns the number of NFTs owned by the given address\r\n    /// @param owner - address to fetch number of NFTs for\r\n    /// @return Returns the number of NFTs owned\r\n    function balanceOf(address owner) external view returns (uint256);\r\n\r\n    /// @dev tokenOfOwnerByIndex returns a tokenID at given index for owner\r\n    /// @param owner - address to fetch the NFT TokenID for\r\n    /// @param index - index of NFT in owned tokens array to fetch\r\n    /// @return Returns the TokenID of the NFT\r\n    function tokenOfOwnerByIndex(address owner, uint256 index)\r\n        external\r\n        view\r\n        returns (uint256);\r\n}\r\n\r\ncontract STUDAO is Ownable {\r\n    // Create a struct named Proposal containing all relevant information\r\n    struct Proposal {\r\n        // nftTokenId - the tokenID of the NFT to purchase from Proposal if the proposal passes\r\n        uint256 nftTokenId;\r\n        // deadline - the UNIX timestamp until which this proposal is active. Proposal can be executed after the deadline has been exceeded.\r\n        uint256 deadline;\r\n        // yayVotes - number of yay votes for this proposal\r\n        uint256 yayVotes;\r\n        // nayVotes - number of nay votes for this proposal\r\n        uint256 nayVotes;\r\n        // executed - whether or not this proposal has been executed yet. Cannot be executed before the deadline has been exceeded.\r\n        bool executed;\r\n        // voters - a mapping of STUNFT tokenIDs to booleans indicating whether that NFT has already been used to cast a vote or not\r\n        mapping(uint256 => bool) voters;\r\n    }\r\n\r\n    // Create a mapping of ID to Proposal\r\n    mapping(uint256 => Proposal) public proposals;\r\n    // Number of proposals that have been created\r\n    uint256 public numProposals;\r\n\r\n    IProposalHandler proposalHandler;\r\n    ISTUNFT stuNFT;\r\n\r\n    // Create a payable constructor which initializes the contract\r\n    // instances for FakeproposalHandler and stuNFT\r\n    // The payable allows this constructor to accept an ETH deposit when it is being deployed\r\n    constructor(address _proposalHandler, address _stuNFT) payable {\r\n        proposalHandler = IProposalHandler(_proposalHandler);\r\n        stuNFT = ISTUNFT(_stuNFT);\r\n    }\r\n\r\n    // Create a modifier which only allows a function to be\r\n    // called by someone who owns at least 1 stuNFT\r\n    modifier nftHolderOnly() {\r\n        require(stuNFT.balanceOf(msg.sender) > 0, \"NOT_A_DAO_MEMBER\");\r\n        _;\r\n    }\r\n\r\n    /// @dev createProposal allows a stuNFT holder to create a new proposal in the DAO\r\n    /// @param _nftTokenId - the tokenID of the NFT to be purchased from FakeproposalHandler if this proposal passes\r\n    /// @return Returns the proposal index for the newly created proposal\r\n    function createProposal(uint256 _nftTokenId)\r\n        external\r\n        nftHolderOnly\r\n        returns (uint256)\r\n    {\r\n        require(proposalHandler.available(_nftTokenId), \"NFT_NOT_FOR_SALE\");\r\n        Proposal storage proposal = proposals[numProposals];\r\n        proposal.nftTokenId = _nftTokenId;\r\n        // Set the proposal's voting deadline to be (current time + 10 minutes)\r\n        proposal.deadline = block.timestamp + 10 minutes;\r\n\r\n        numProposals++;\r\n\r\n        return numProposals - 1;\r\n    }\r\n\r\n    // Create a modifier which only allows a function to be\r\n    // called if the given proposal's deadline has not been exceeded yet\r\n    modifier activeProposalOnly(uint256 proposalIndex) {\r\n        require(\r\n            proposals[proposalIndex].deadline > block.timestamp,\r\n            \"DEADLINE_EXCEEDED\"\r\n        );\r\n        _;\r\n    }\r\n\r\n    // Create an enum named Vote containing possible options for a vote\r\n    enum Vote {\r\n        YAY, // YAY = 0\r\n        NAY // NAY = 1\r\n    }\r\n\r\n    /// @dev voteOnProposal allows a stuNFT holder to cast their vote on an active proposal\r\n    /// @param proposalIndex - the index of the proposal to vote on in the proposals array\r\n    /// @param vote - the type of vote they want to cast\r\n    function voteOnProposal(uint256 proposalIndex, Vote vote)\r\n        external\r\n        nftHolderOnly\r\n        activeProposalOnly(proposalIndex)\r\n    {\r\n        Proposal storage proposal = proposals[proposalIndex];\r\n\r\n        uint256 voterNFTBalance = stuNFT.balanceOf(msg.sender);\r\n        uint256 numVotes = 0;\r\n\r\n        // Calculate how many NFTs are owned by the voter\r\n        // that haven't already been used for voting on this proposal\r\n        for (uint256 i = 0; i < voterNFTBalance; i++) {\r\n            uint256 tokenId = stuNFT.tokenOfOwnerByIndex(msg.sender, i);\r\n            if (proposal.voters[tokenId] == false) {\r\n                numVotes++;\r\n                proposal.voters[tokenId] = true;\r\n            }\r\n        }\r\n        require(numVotes > 0, \"ALREADY_VOTED\");\r\n\r\n        if (vote == Vote.YAY) {\r\n            proposal.yayVotes += numVotes;\r\n        } else {\r\n            proposal.nayVotes += numVotes;\r\n        }\r\n    }\r\n\r\n    // Create a modifier which only allows a function to be\r\n    // called if the given proposals' deadline HAS been exceeded\r\n    // and if the proposal has not yet been executed\r\n    modifier inactiveProposalOnly(uint256 proposalIndex) {\r\n        require(\r\n            proposals[proposalIndex].deadline <= block.timestamp,\r\n            \"DEADLINE_NOT_EXCEEDED\"\r\n        );\r\n        require(\r\n            proposals[proposalIndex].executed == false,\r\n            \"PROPOSAL_ALREADY_EXECUTED\"\r\n        );\r\n        _;\r\n    }\r\n\r\n    /// @dev executeProposal allows any stuNFT holder to execute a proposal after it's deadline has been exceeded\r\n    /// @param proposalIndex - the index of the proposal to execute in the proposals array\r\n    function executeProposal(uint256 proposalIndex)\r\n        external\r\n        nftHolderOnly\r\n        inactiveProposalOnly(proposalIndex)\r\n    {\r\n        Proposal storage proposal = proposals[proposalIndex];\r\n\r\n        // If the proposal has more YAY votes than NAY votes\r\n        // purchase the NFT from the FakeproposalHandler\r\n        if (proposal.yayVotes > proposal.nayVotes) {\r\n            uint256 nftPrice = proposalHandler.getPrice();\r\n            require(address(this).balance >= nftPrice, \"NOT_ENOUGH_FUNDS\");\r\n            proposalHandler.purchase{value: nftPrice}(proposal.nftTokenId);\r\n        }\r\n        proposal.executed = true;\r\n    }\r\n\r\n    /// @dev withdrawEther allows the contract owner (deployer) to withdraw the ETH from the contract\r\n    function withdrawEther() external onlyOwner {\r\n        payable(owner()).transfer(address(this).balance);\r\n    }\r\n\r\n    // The following two functions allow the contract to accept ETH deposits\r\n    // directly from a wallet without calling a function\r\n    receive() external payable {}\r\n\r\n    fallback() external payable {}\r\n}\r\n",
  "sourcePath": "C:\\Users\\Sudeep\\Desktop\\DAO\\bc\\contracts\\DAO.sol",
  "compiler": {
    "name": "solc",
    "version": "0.8.17+commit.8df45f5f.Emscripten.clang"
  },
  "schemaVersion": "3.4.10",
  "updatedAt": "2022-10-18T07:28:46.510Z",
  "networkType": "ethereum",
  "devdoc": {
    "kind": "dev",
    "methods": {
      "createProposal(uint256)": {
        "details": "createProposal allows a stuNFT holder to create a new proposal in the DAO",
        "params": {
          "_nftTokenId": "- the tokenID of the NFT to be purchased from FakeproposalHandler if this proposal passes"
        },
        "returns": {
          "_0": "Returns the proposal index for the newly created proposal"
        }
      },
      "executeProposal(uint256)": {
        "details": "executeProposal allows any stuNFT holder to execute a proposal after it's deadline has been exceeded",
        "params": {
          "proposalIndex": "- the index of the proposal to execute in the proposals array"
        }
      },
      "owner()": {
        "details": "Returns the address of the current owner."
      },
      "renounceOwnership()": {
        "details": "Leaves the contract without owner. It will not be possible to call `onlyOwner` functions anymore. Can only be called by the current owner. NOTE: Renouncing ownership will leave the contract without an owner, thereby removing any functionality that is only available to the owner."
      },
      "transferOwnership(address)": {
        "details": "Transfers ownership of the contract to a new account (`newOwner`). Can only be called by the current owner."
      },
      "voteOnProposal(uint256,uint8)": {
        "details": "voteOnProposal allows a stuNFT holder to cast their vote on an active proposal",
        "params": {
          "proposalIndex": "- the index of the proposal to vote on in the proposals array",
          "vote": "- the type of vote they want to cast"
        }
      },
      "withdrawEther()": {
        "details": "withdrawEther allows the contract owner (deployer) to withdraw the ETH from the contract"
      }
    },
    "version": 1
  },
  "userdoc": {
    "kind": "user",
    "methods": {},
    "version": 1
  }
}